{
  "contractName": "RockPaperScissors",
  "abi": [
    {
      "constant": true,
      "inputs": [
        {
          "name": "",
          "type": "uint256"
        }
      ],
      "name": "games",
      "outputs": [
        {
          "name": "gameId",
          "type": "uint256"
        },
        {
          "name": "wager",
          "type": "uint256"
        },
        {
          "name": "gameExpirationBlock",
          "type": "uint256"
        },
        {
          "name": "creator",
          "type": "address"
        },
        {
          "name": "challenger",
          "type": "address"
        },
        {
          "name": "winner",
          "type": "address"
        },
        {
          "name": "creatorEncryptedMove",
          "type": "bytes32"
        },
        {
          "name": "challengerEncryptedMove",
          "type": "bytes32"
        },
        {
          "name": "creatorMove",
          "type": "string"
        },
        {
          "name": "challengerMove",
          "type": "string"
        },
        {
          "name": "status",
          "type": "uint8"
        }
      ],
      "payable": false,
      "stateMutability": "view",
      "type": "function"
    },
    {
      "constant": true,
      "inputs": [],
      "name": "gameIdCounter",
      "outputs": [
        {
          "name": "",
          "type": "uint256"
        }
      ],
      "payable": false,
      "stateMutability": "view",
      "type": "function"
    },
    {
      "constant": true,
      "inputs": [],
      "name": "gameBlockTimeLimit",
      "outputs": [
        {
          "name": "",
          "type": "uint256"
        }
      ],
      "payable": false,
      "stateMutability": "view",
      "type": "function"
    },
    {
      "constant": false,
      "inputs": [],
      "name": "renounceOwnership",
      "outputs": [],
      "payable": false,
      "stateMutability": "nonpayable",
      "type": "function"
    },
    {
      "constant": true,
      "inputs": [],
      "name": "contractPaused",
      "outputs": [
        {
          "name": "",
          "type": "bool"
        }
      ],
      "payable": false,
      "stateMutability": "view",
      "type": "function"
    },
    {
      "constant": true,
      "inputs": [],
      "name": "owner",
      "outputs": [
        {
          "name": "",
          "type": "address"
        }
      ],
      "payable": false,
      "stateMutability": "view",
      "type": "function"
    },
    {
      "constant": true,
      "inputs": [],
      "name": "minimumWager",
      "outputs": [
        {
          "name": "",
          "type": "uint256"
        }
      ],
      "payable": false,
      "stateMutability": "view",
      "type": "function"
    },
    {
      "constant": false,
      "inputs": [
        {
          "name": "_newOwner",
          "type": "address"
        }
      ],
      "name": "transferOwnership",
      "outputs": [],
      "payable": false,
      "stateMutability": "nonpayable",
      "type": "function"
    },
    {
      "inputs": [
        {
          "name": "_minimumWager",
          "type": "uint256"
        }
      ],
      "payable": false,
      "stateMutability": "nonpayable",
      "type": "constructor"
    },
    {
      "anonymous": false,
      "inputs": [
        {
          "indexed": true,
          "name": "previousOwner",
          "type": "address"
        }
      ],
      "name": "OwnershipRenounced",
      "type": "event"
    },
    {
      "anonymous": false,
      "inputs": [
        {
          "indexed": true,
          "name": "previousOwner",
          "type": "address"
        },
        {
          "indexed": true,
          "name": "newOwner",
          "type": "address"
        }
      ],
      "name": "OwnershipTransferred",
      "type": "event"
    },
    {
      "constant": false,
      "inputs": [],
      "name": "circuitBreaker",
      "outputs": [],
      "payable": false,
      "stateMutability": "nonpayable",
      "type": "function"
    },
    {
      "constant": false,
      "inputs": [
        {
          "name": "_move",
          "type": "string"
        },
        {
          "name": "_password",
          "type": "string"
        },
        {
          "name": "_wager",
          "type": "uint256"
        }
      ],
      "name": "createGame",
      "outputs": [],
      "payable": true,
      "stateMutability": "payable",
      "type": "function"
    },
    {
      "constant": false,
      "inputs": [
        {
          "name": "_gameId",
          "type": "uint256"
        }
      ],
      "name": "cancelGame",
      "outputs": [],
      "payable": false,
      "stateMutability": "nonpayable",
      "type": "function"
    },
    {
      "constant": false,
      "inputs": [
        {
          "name": "_gameId",
          "type": "uint256"
        },
        {
          "name": "_move",
          "type": "string"
        },
        {
          "name": "_password",
          "type": "string"
        }
      ],
      "name": "joinGame",
      "outputs": [],
      "payable": true,
      "stateMutability": "payable",
      "type": "function"
    },
    {
      "constant": false,
      "inputs": [
        {
          "name": "_gameId",
          "type": "uint256"
        },
        {
          "name": "_move",
          "type": "string"
        },
        {
          "name": "_password",
          "type": "string"
        }
      ],
      "name": "revealMove",
      "outputs": [],
      "payable": false,
      "stateMutability": "nonpayable",
      "type": "function"
    }
  ],
  "bytecode": "0x608060405260008060146101000a81548160ff02191690831515021790555060405180600001905060405180910390206004906000191690553480156200004557600080fd5b506040516020806200333983398101806040528101908080519060200190929190505050336000806101000a81548173ffffffffffffffffffffffffffffffffffffffff021916908373ffffffffffffffffffffffffffffffffffffffff160217905550600060018190555080600281905550611680600381905550620000da620000e1640100000000026401000000009004565b5062000330565b6040805190810160405280600581526020017f5061706572000000000000000000000000000000000000000000000000000000815250600660405180807f526f636b000000000000000000000000000000000000000000000000000000008152506004019050908152602001604051809103902090805190602001906200016a92919062000281565b506040805190810160405280600881526020017f53636973736f7273000000000000000000000000000000000000000000000000815250600660405180807f5061706572000000000000000000000000000000000000000000000000000000815250600501905090815260200160405180910390209080519060200190620001f492919062000281565b506040805190810160405280600481526020017f526f636b00000000000000000000000000000000000000000000000000000000815250600660405180807f53636973736f72730000000000000000000000000000000000000000000000008152506008019050908152602001604051809103902090805190602001906200027e92919062000281565b50565b828054600181600116156101000203166002900490600052602060002090601f016020900481019282601f10620002c457805160ff1916838001178555620002f5565b82800160010185558215620002f5579182015b82811115620002f4578251825591602001919060010190620002d7565b5b50905062000304919062000308565b5090565b6200032d91905b80821115620003295760008160009055506001016200030f565b5090565b90565b612ff980620003406000396000f3006080604052600436106100c5576000357c0100000000000000000000000000000000000000000000000000000000900463ffffffff168063117a5b90146100ca57806316efd941146102bd5780631bb412d6146102d457806334b1097f146102ff578063526999d01461032a57806369958ab9146103e3578063715018a61461041057806383bee8ca146104275780638a67456a146104d35780638da5cb5b1461050257806391898efd14610559578063b19068c714610605578063f2fde38b14610630575b600080fd5b3480156100d657600080fd5b506100f560048036038101908080359060200190929190505050610673565b604051808c81526020018b81526020018a81526020018973ffffffffffffffffffffffffffffffffffffffff1673ffffffffffffffffffffffffffffffffffffffff1681526020018873ffffffffffffffffffffffffffffffffffffffff1673ffffffffffffffffffffffffffffffffffffffff1681526020018773ffffffffffffffffffffffffffffffffffffffff1673ffffffffffffffffffffffffffffffffffffffff1681526020018660001916600019168152602001856000191660001916815260200180602001806020018460068111156101d157fe5b60ff168152602001838103835286818151815260200191508051906020019080838360005b838110156102115780820151818401526020810190506101f6565b50505050905090810190601f16801561023e5780820380516001836020036101000a031916815260200191505b50838103825285818151815260200191508051906020019080838360005b8381101561027757808201518184015260208101905061025c565b50505050905090810190601f1680156102a45780820380516001836020036101000a031916815260200191505b509d505050505050505050505050505060405180910390f35b3480156102c957600080fd5b506102d261086a565b005b3480156102e057600080fd5b506102e961091e565b6040518082815260200191505060405180910390f35b34801561030b57600080fd5b50610314610924565b6040518082815260200191505060405180910390f35b34801561033657600080fd5b506103e160048036038101908080359060200190929190803590602001908201803590602001908080601f0160208091040260200160405190810160405280939291908181526020018383808284378201915050505050509192919290803590602001908201803590602001908080601f016020809104026020016040519081016040528093929190818152602001838380828437820191505050505050919291929050505061092a565b005b3480156103ef57600080fd5b5061040e6004803603810190808035906020019092919050505061165b565b005b34801561041c57600080fd5b506104256117bd565b005b6104d160048036038101908080359060200190929190803590602001908201803590602001908080601f0160208091040260200160405190810160405280939291908181526020018383808284378201915050505050509192919290803590602001908201803590602001908080601f01602080910402602001604051908101604052809392919081815260200183838082843782019150505050505091929192905050506118bf565b005b3480156104df57600080fd5b506104e8611e46565b604051808215151515815260200191505060405180910390f35b34801561050e57600080fd5b50610517611e59565b604051808273ffffffffffffffffffffffffffffffffffffffff1673ffffffffffffffffffffffffffffffffffffffff16815260200191505060405180910390f35b610603600480360381019080803590602001908201803590602001908080601f0160208091040260200160405190810160405280939291908181526020018383808284378201915050505050509192919290803590602001908201803590602001908080601f016020809104026020016040519081016040528093929190818152602001838380828437820191505050505050919291929080359060200190929190505050611e7e565b005b34801561061157600080fd5b5061061a612513565b6040518082815260200191505060405180910390f35b34801561063c57600080fd5b50610671600480360381019080803573ffffffffffffffffffffffffffffffffffffffff169060200190929190505050612519565b005b60056020528060005260406000206000915090508060000154908060010154908060020154908060030160009054906101000a900473ffffffffffffffffffffffffffffffffffffffff16908060040160009054906101000a900473ffffffffffffffffffffffffffffffffffffffff16908060050160009054906101000a900473ffffffffffffffffffffffffffffffffffffffff1690806006015490806007015490806008018054600181600116156101000203166002900480601f0160208091040260200160405190810160405280929190818152602001828054600181600116156101000203166002900480156107af5780601f10610784576101008083540402835291602001916107af565b820191906000526020600020905b81548152906001019060200180831161079257829003601f168201915b505050505090806009018054600181600116156101000203166002900480601f01602080910402602001604051908101604052809291908181526020018280546001816001161561010002031660029004801561084d5780601f106108225761010080835404028352916020019161084d565b820191906000526020600020905b81548152906001019060200180831161083057829003601f168201915b50505050509080600a0160009054906101000a900460ff1690508b565b6000809054906101000a900473ffffffffffffffffffffffffffffffffffffffff1673ffffffffffffffffffffffffffffffffffffffff163373ffffffffffffffffffffffffffffffffffffffff161415156108c557600080fd5b60001515600060149054906101000a900460ff1615151415610901576001600060146101000a81548160ff02191690831515021790555061091c565b60008060146101000a81548160ff0219169083151502179055505b565b60015481565b60035481565b6000801515600060149054906101000a900460ff16151514151561094d57600080fd5b8360008060056000848152602001908152602001600020915061097e6002836001015461258090919063ffffffff16565b90508160020154431015801561099957506000826002015414155b80156109cc57506006808111156109ac57fe5b82600a0160009054906101000a900460ff1660068111156109c957fe5b14155b15610eb657600682600a0160006101000a81548160ff021916908360068111156109f257fe5b021790555060045460001916826008016040518082805460018160011615610100020316600290048015610a5d5780601f10610a3b576101008083540402835291820191610a5d565b820191906000526020600020905b815481529060010190602001808311610a49575b5050915050604051809103902060001916148015610af0575060045460001916826009016040518082805460018160011615610100020316600290048015610adc5780601f10610aba576101008083540402835291820191610adc565b820191906000526020600020905b815481529060010190602001808311610ac8575b505091505060405180910390206000191614155b15610b65578160040160009054906101000a900473ffffffffffffffffffffffffffffffffffffffff1673ffffffffffffffffffffffffffffffffffffffff166108fc829081150290604051600060405180830381858888f19350505050158015610b5f573d6000803e3d6000fd5b50610eb1565b60045460001916826008016040518082805460018160011615610100020316600290048015610bcb5780601f10610ba9576101008083540402835291820191610bcb565b820191906000526020600020905b815481529060010190602001808311610bb7575b505091505060405180910390206000191614158015610c5e575060045460001916826009016040518082805460018160011615610100020316600290048015610c4b5780601f10610c29576101008083540402835291820191610c4b565b820191906000526020600020905b815481529060010190602001808311610c37575b5050915050604051809103902060001916145b15610cd3578160030160009054906101000a900473ffffffffffffffffffffffffffffffffffffffff1673ffffffffffffffffffffffffffffffffffffffff166108fc829081150290604051600060405180830381858888f19350505050158015610ccd573d6000803e3d6000fd5b50610eb0565b60045460001916826008016040518082805460018160011615610100020316600290048015610d395780601f10610d17576101008083540402835291820191610d39565b820191906000526020600020905b815481529060010190602001808311610d25575b5050915050604051809103902060001916148015610dcb575060045460001916826009016040518082805460018160011615610100020316600290048015610db85780601f10610d96576101008083540402835291820191610db8565b820191906000526020600020905b815481529060010190602001808311610da4575b5050915050604051809103902060001916145b15610eaf578160030160009054906101000a900473ffffffffffffffffffffffffffffffffffffffff1673ffffffffffffffffffffffffffffffffffffffff166108fc83600101549081150290604051600060405180830381858888f19350505050158015610e3e573d6000803e3d6000fd5b508160040160009054906101000a900473ffffffffffffffffffffffffffffffffffffffff1673ffffffffffffffffffffffffffffffffffffffff166108fc83600101549081150290604051600060405180830381858888f19350505050158015610ead573d6000803e3d6000fd5b505b5b5b600080fd5b8560405180807f526f636b000000000000000000000000000000000000000000000000000000008152506004019050604051809103902060001916816040518082805190602001908083835b602083101515610f275780518252602082019150602081019050602083039250610f02565b6001836020036101000a0380198251168184511680821785525050505050509050019150506040518091039020600019161480611002575060405180807f50617065720000000000000000000000000000000000000000000000000000008152506005019050604051809103902060001916816040518082805190602001908083835b602083101515610fcf5780518252602082019150602081019050602083039250610faa565b6001836020036101000a038019825116818451168082178552505050505050905001915050604051809103902060001916145b806110ab575060405180807f53636973736f72730000000000000000000000000000000000000000000000008152506008019050604051809103902060001916816040518082805190602001908083835b6020831015156110785780518252602082019150602081019050602083039250611053565b6001836020036101000a038019825116818451168082178552505050505050905001915050604051809103902060001916145b15156110b657600080fd5b8560045460001916816040518082805190602001908083835b6020831015156110f457805182526020820191506020810190506020830392506110cf565b6001836020036101000a0380198251168184511680821785525050505050509050019150506040518091039020600019161415151561113257600080fd5b600560008a815260200190815260200160002095506002600681111561115457fe5b86600a0160009054906101000a900460ff16600681111561117157fe5b14806111a457506003600681111561118557fe5b86600a0160009054906101000a900460ff1660068111156111a257fe5b145b806111d65750600460068111156111b757fe5b86600a0160009054906101000a900460ff1660068111156111d457fe5b145b15156111e157600080fd5b8560030160009054906101000a900473ffffffffffffffffffffffffffffffffffffffff1673ffffffffffffffffffffffffffffffffffffffff163373ffffffffffffffffffffffffffffffffffffffff161415611391578733886040518084805190602001908083835b602083101515611271578051825260208201915060208101905060208303925061124c565b6001836020036101000a0380198251168184511680821785525050505050509050018373ffffffffffffffffffffffffffffffffffffffff1673ffffffffffffffffffffffffffffffffffffffff166c0100000000000000000000000002815260140182805190602001908083835b60208310151561130557805182526020820191506020810190506020830392506112e0565b6001836020036101000a038019825116818451168082178552505050505050905001935050505060405180910390206000191686600601546000191614151561134d57600080fd5b87866008019080519060200190611365929190612ea8565b50600486600a0160006101000a81548160ff0219169083600681111561138757fe5b0217905550611547565b8560040160009054906101000a900473ffffffffffffffffffffffffffffffffffffffff1673ffffffffffffffffffffffffffffffffffffffff163373ffffffffffffffffffffffffffffffffffffffff161415611541578733886040518084805190602001908083835b60208310151561142157805182526020820191506020810190506020830392506113fc565b6001836020036101000a0380198251168184511680821785525050505050509050018373ffffffffffffffffffffffffffffffffffffffff1673ffffffffffffffffffffffffffffffffffffffff166c0100000000000000000000000002815260140182805190602001908083835b6020831015156114b55780518252602082019150602081019050602083039250611490565b6001836020036101000a03801982511681845116808217855250505050505090500193505050506040518091039020600019168660070154600019161415156114fd57600080fd5b87866009019080519060200190611515929190612ea8565b50600386600a0160006101000a81548160ff0219169083600681111561153757fe5b0217905550611546565b600080fd5b5b600454600019168660080160405180828054600181600116156101000203166002900480156115ad5780601f1061158b5761010080835404028352918201916115ad565b820191906000526020600020905b815481529060010190602001808311611599575b50509150506040518091039020600019161415801561164157506004546000191686600901604051808280546001816001161561010002031660029004801561162d5780601f1061160b57610100808354040283529182019161162d565b820191906000526020600020905b815481529060010190602001808311611619575b505091505060405180910390206000191614155b156116505761164f896125be565b5b505050505050505050565b6000801515600060149054906101000a900460ff16151514151561167e57600080fd5b6005600083815260200190815260200160002090508060030160009054906101000a900473ffffffffffffffffffffffffffffffffffffffff1673ffffffffffffffffffffffffffffffffffffffff163373ffffffffffffffffffffffffffffffffffffffff161480156117195750600060068111156116fa57fe5b81600a0160009054906101000a900460ff16600681111561171757fe5b145b151561172457600080fd5b600181600a0160006101000a81548160ff0219169083600681111561174557fe5b02179055508060030160009054906101000a900473ffffffffffffffffffffffffffffffffffffffff1673ffffffffffffffffffffffffffffffffffffffff166108fc82600101549081150290604051600060405180830381858888f193505050501580156117b8573d6000803e3d6000fd5b505050565b6000809054906101000a900473ffffffffffffffffffffffffffffffffffffffff1673ffffffffffffffffffffffffffffffffffffffff163373ffffffffffffffffffffffffffffffffffffffff1614151561181857600080fd5b6000809054906101000a900473ffffffffffffffffffffffffffffffffffffffff1673ffffffffffffffffffffffffffffffffffffffff167ff8df31144d9c2f0f6b59d69b8b98abd5459d07f2742c4df920b25aae33c6482060405160405180910390a260008060006101000a81548173ffffffffffffffffffffffffffffffffffffffff021916908373ffffffffffffffffffffffffffffffffffffffff160217905550565b6000801515600060149054906101000a900460ff1615151415156118e257600080fd5b8260405180807f526f636b000000000000000000000000000000000000000000000000000000008152506004019050604051809103902060001916816040518082805190602001908083835b602083101515611953578051825260208201915060208101905060208303925061192e565b6001836020036101000a0380198251168184511680821785525050505050509050019150506040518091039020600019161480611a2e575060405180807f50617065720000000000000000000000000000000000000000000000000000008152506005019050604051809103902060001916816040518082805190602001908083835b6020831015156119fb57805182526020820191506020810190506020830392506119d6565b6001836020036101000a038019825116818451168082178552505050505050905001915050604051809103902060001916145b80611ad7575060405180807f53636973736f72730000000000000000000000000000000000000000000000008152506008019050604051809103902060001916816040518082805190602001908083835b602083101515611aa45780518252602082019150602081019050602083039250611a7f565b6001836020036101000a038019825116818451168082178552505050505050905001915050604051809103902060001916145b1515611ae257600080fd5b8260045460001916816040518082805190602001908083835b602083101515611b205780518252602082019150602081019050602083039250611afb565b6001836020036101000a03801982511681845116808217855250505050505090500191505060405180910390206000191614151515611b5e57600080fd5b6005600087815260200190815260200160002060010154803410158015611b8757506002548110155b1515611b9257600080fd5b60056000888152602001908152602001600020600101546000600560008a815260200190815260200160002095503373ffffffffffffffffffffffffffffffffffffffff168660030160009054906101000a900473ffffffffffffffffffffffffffffffffffffffff1673ffffffffffffffffffffffffffffffffffffffff1614158015611c47575060006006811115611c2857fe5b86600a0160009054906101000a900460ff166006811115611c4557fe5b145b1515611c5257600080fd5b600286600a0160006101000a81548160ff02191690836006811115611c7357fe5b0217905550338660040160006101000a81548173ffffffffffffffffffffffffffffffffffffffff021916908373ffffffffffffffffffffffffffffffffffffffff160217905550611cd060035443612d6c90919063ffffffff16565b86600201819055508733886040518084805190602001908083835b602083101515611d105780518252602082019150602081019050602083039250611ceb565b6001836020036101000a0380198251168184511680821785525050505050509050018373ffffffffffffffffffffffffffffffffffffffff1673ffffffffffffffffffffffffffffffffffffffff166c0100000000000000000000000002815260140182805190602001908083835b602083101515611da45780518252602082019150602081019050602083039250611d7f565b6001836020036101000a03801982511681845116808217855250505050505090500193505050506040518091039020866007018160001916905550611df28234612d8d90919063ffffffff16565b90503373ffffffffffffffffffffffffffffffffffffffff166108fc829081150290604051600060405180830381858888f19350505050158015611e3a573d6000803e3d6000fd5b50505050505050505050565b600060149054906101000a900460ff1681565b6000809054906101000a900473ffffffffffffffffffffffffffffffffffffffff1681565b60001515600060149054906101000a900460ff161515141515611ea057600080fd5b8260405180807f526f636b000000000000000000000000000000000000000000000000000000008152506004019050604051809103902060001916816040518082805190602001908083835b602083101515611f115780518252602082019150602081019050602083039250611eec565b6001836020036101000a0380198251168184511680821785525050505050509050019150506040518091039020600019161480611fec575060405180807f50617065720000000000000000000000000000000000000000000000000000008152506005019050604051809103902060001916816040518082805190602001908083835b602083101515611fb95780518252602082019150602081019050602083039250611f94565b6001836020036101000a038019825116818451168082178552505050505050905001915050604051809103902060001916145b80612095575060405180807f53636973736f72730000000000000000000000000000000000000000000000008152506008019050604051809103902060001916816040518082805190602001908083835b602083101515612062578051825260208201915060208101905060208303925061203d565b6001836020036101000a038019825116818451168082178552505050505050905001915050604051809103902060001916145b15156120a057600080fd5b8260045460001916816040518082805190602001908083835b6020831015156120de57805182526020820191506020810190506020830392506120b9565b6001836020036101000a0380198251168184511680821785525050505050509050019150506040518091039020600019161415151561211c57600080fd5b8280341015801561212f57506002548110155b151561213a57600080fd5b836000610160604051908101604052806001548152602001878152602001600081526020013373ffffffffffffffffffffffffffffffffffffffff168152602001600073ffffffffffffffffffffffffffffffffffffffff168152602001600073ffffffffffffffffffffffffffffffffffffffff16815260200189338a6040518084805190602001908083835b6020831015156121ed57805182526020820191506020810190506020830392506121c8565b6001836020036101000a0380198251168184511680821785525050505050509050018373ffffffffffffffffffffffffffffffffffffffff1673ffffffffffffffffffffffffffffffffffffffff166c0100000000000000000000000002815260140182805190602001908083835b602083101515612281578051825260208201915060208101905060208303925061225c565b6001836020036101000a038019825116818451168082178552505050505050905001935050505060405180910390206000191681526020016004546000191681526020016020604051908101604052806000815250815260200160206040519081016040528060008152508152602001600060068111156122fe57fe5b81525060056000600154815260200190815260200160002060008201518160000155602082015181600101556040820151816002015560608201518160030160006101000a81548173ffffffffffffffffffffffffffffffffffffffff021916908373ffffffffffffffffffffffffffffffffffffffff16021790555060808201518160040160006101000a81548173ffffffffffffffffffffffffffffffffffffffff021916908373ffffffffffffffffffffffffffffffffffffffff16021790555060a08201518160050160006101000a81548173ffffffffffffffffffffffffffffffffffffffff021916908373ffffffffffffffffffffffffffffffffffffffff16021790555060c0820151816006019060001916905560e08201518160070190600019169055610100820151816008019080519060200190612446929190612f28565b50610120820151816009019080519060200190612464929190612f28565b5061014082015181600a0160006101000a81548160ff0219169083600681111561248a57fe5b02179055509050506124a760018054612d6c90919063ffffffff16565b6001819055506124c08234612d8d90919063ffffffff16565b90503373ffffffffffffffffffffffffffffffffffffffff166108fc829081150290604051600060405180830381858888f19350505050158015612508573d6000803e3d6000fd5b505050505050505050565b60025481565b6000809054906101000a900473ffffffffffffffffffffffffffffffffffffffff1673ffffffffffffffffffffffffffffffffffffffff163373ffffffffffffffffffffffffffffffffffffffff1614151561257457600080fd5b61257d81612dae565b50565b600080600084141561259557600091506125b7565b82840290508284828115156125a657fe5b041415156125b357600080fd5b8091505b5092915050565b60008060001515600060149054906101000a900460ff1615151415156125e357600080fd5b6005600084815260200190815260200160002091506126106002836001015461258090919063ffffffff16565b9050600454600019168260080160405180828054600181600116156101000203166002900480156126785780601f10612656576101008083540402835291820191612678565b820191906000526020600020905b815481529060010190602001808311612664575b50509150506040518091039020600019161415801561270c5750600454600019168260090160405180828054600181600116156101000203166002900480156126f85780601f106126d65761010080835404028352918201916126f8565b820191906000526020600020905b8154815290600101906020018083116126e4575b505091505060405180910390206000191614155b151561271757600080fd5b8160090160405180828054600181600116156101000203166002900480156127765780601f10612754576101008083540402835291820191612776565b820191906000526020600020905b815481529060010190602001808311612762575b50509150506040518091039020600019168260080160405180828054600181600116156101000203166002900480156127e65780601f106127c45761010080835404028352918201916127e6565b820191906000526020600020905b8154815290600101906020018083116127d2575b505091505060405180910390206000191614156128e0578160030160009054906101000a900473ffffffffffffffffffffffffffffffffffffffff1673ffffffffffffffffffffffffffffffffffffffff166108fc83600101549081150290604051600060405180830381858888f1935050505015801561286b573d6000803e3d6000fd5b508160040160009054906101000a900473ffffffffffffffffffffffffffffffffffffffff1673ffffffffffffffffffffffffffffffffffffffff166108fc83600101549081150290604051600060405180830381858888f193505050501580156128da573d6000803e3d6000fd5b50612d41565b81600901604051808280546001816001161561010002031660029004801561293f5780601f1061291d57610100808354040283529182019161293f565b820191906000526020600020905b81548152906001019060200180831161292b575b505091505060405180910390206000191660068360080160405180828054600181600116156101000203166002900480156129b15780601f1061298f5761010080835404028352918201916129b1565b820191906000526020600020905b81548152906001019060200180831161299d575b505091505090815260200160405180910390206040518082805460018160011615610100020316600290048015612a1f5780601f106129fd576101008083540402835291820191612a1f565b820191906000526020600020905b815481529060010190602001808311612a0b575b50509150506040518091039020600019161415612b0d578160040160009054906101000a900473ffffffffffffffffffffffffffffffffffffffff168260050160006101000a81548173ffffffffffffffffffffffffffffffffffffffff021916908373ffffffffffffffffffffffffffffffffffffffff1602179055508160050160009054906101000a900473ffffffffffffffffffffffffffffffffffffffff1673ffffffffffffffffffffffffffffffffffffffff166108fc829081150290604051600060405180830381858888f19350505050158015612b07573d6000803e3d6000fd5b50612d40565b816008016040518082805460018160011615610100020316600290048015612b6c5780601f10612b4a576101008083540402835291820191612b6c565b820191906000526020600020905b815481529060010190602001808311612b58575b50509150506040518091039020600019166006836009016040518082805460018160011615610100020316600290048015612bde5780601f10612bbc576101008083540402835291820191612bde565b820191906000526020600020905b815481529060010190602001808311612bca575b505091505090815260200160405180910390206040518082805460018160011615610100020316600290048015612c4c5780601f10612c2a576101008083540402835291820191612c4c565b820191906000526020600020905b815481529060010190602001808311612c38575b50509150506040518091039020600019161415612d3a578160030160009054906101000a900473ffffffffffffffffffffffffffffffffffffffff168260050160006101000a81548173ffffffffffffffffffffffffffffffffffffffff021916908373ffffffffffffffffffffffffffffffffffffffff1602179055508160050160009054906101000a900473ffffffffffffffffffffffffffffffffffffffff1673ffffffffffffffffffffffffffffffffffffffff166108fc829081150290604051600060405180830381858888f19350505050158015612d34573d6000803e3d6000fd5b50612d3f565b600080fd5b5b5b600582600a0160006101000a81548160ff02191690836006811115612d6257fe5b0217905550505050565b6000808284019050838110151515612d8357600080fd5b8091505092915050565b600080838311151515612d9f57600080fd5b82840390508091505092915050565b600073ffffffffffffffffffffffffffffffffffffffff168173ffffffffffffffffffffffffffffffffffffffff1614151515612dea57600080fd5b8073ffffffffffffffffffffffffffffffffffffffff166000809054906101000a900473ffffffffffffffffffffffffffffffffffffffff1673ffffffffffffffffffffffffffffffffffffffff167f8be0079c531659141344cd1fd0a4f28419497f9722a3daafe3b4186f6b6457e060405160405180910390a3806000806101000a81548173ffffffffffffffffffffffffffffffffffffffff021916908373ffffffffffffffffffffffffffffffffffffffff16021790555050565b828054600181600116156101000203166002900490600052602060002090601f016020900481019282601f10612ee957805160ff1916838001178555612f17565b82800160010185558215612f17579182015b82811115612f16578251825591602001919060010190612efb565b5b509050612f249190612fa8565b5090565b828054600181600116156101000203166002900490600052602060002090601f016020900481019282601f10612f6957805160ff1916838001178555612f97565b82800160010185558215612f97579182015b82811115612f96578251825591602001919060010190612f7b565b5b509050612fa49190612fa8565b5090565b612fca91905b80821115612fc6576000816000905550600101612fae565b5090565b905600a165627a7a72305820e84bf4bb2b1ae707ef09fa3557b83ebee5656c226eb81a2d458828375219e9290029",
  "source": "pragma solidity ^0.4.24;\n\nimport \"./Ownable.sol\";\nimport \"./SafeMath.sol\";\n\ncontract RockPaperScissors is Ownable {\n\n  /*\n  <-- Global Variables, Data Structures, Constructor, and Circuit Breaker -->\n  */\n\n  // The SafeMath library protects from overflows\n  using SafeMath for uint;\n\n  // Declare global variables\n  bool public contractPaused = false;\n  uint public gameIdCounter;\n  uint public minimumWager; // In wei, recommended: 5000000000000000 wei = .005 ether\n  uint public gameBlockTimeLimit;\n  bytes32 internal emptyStringHash = keccak256('');\n\n  // The Game object\n  struct Game {\n    uint gameId;\n    uint wager;\n    uint gameExpirationBlock;\n    address creator;\n    address challenger;\n    address winner;\n    bytes32 creatorEncryptedMove;\n    bytes32 challengerEncryptedMove;\n    string creatorMove;\n    string challengerMove;\n    Status status;\n  }\n\n  // Game objects are identified by their gameId in a mapping called 'games', i.e. games[0] returns the first Game\n  mapping (uint => Game) public games;\n\n  // Game statuses\n  enum Status {\n    Open,\n    Cancelled,\n    AwaitingReveals,\n    AwaitingCreatorReveal,\n    AwaitingChallengerReveal,\n    Finished,\n    Expired\n  }\n\n  /// @dev i.e. moveWinsAgainst['Rock'] returns 'Paper'\n  mapping (string => string) internal moveWinsAgainst;\n\n  // Seeds the moveWinsAgainst mapping above\n  function seedMoveWinsAgainst() internal {\n    moveWinsAgainst['Rock'] = 'Paper';\n    moveWinsAgainst['Paper'] = 'Scissors';\n    moveWinsAgainst['Scissors'] = 'Rock';\n  }\n\n  // When the contract is deployed, set the owner and the global variables and seed the moveWinsAgainst mapping\n  constructor(uint _minimumWager) public {\n    gameIdCounter = 0;\n    minimumWager = _minimumWager; // In wei (1 eth = 1000000000000000000 wei)\n    gameBlockTimeLimit = 5760; // Roughly 24 hours @ a 15 second blocktime\n    seedMoveWinsAgainst();\n  }\n\n  // The contract owner can pause all functionality\n  function circuitBreaker() public onlyOwner {\n    if (contractPaused == false) { contractPaused = true; }\n    else { contractPaused = false; }\n  }\n\n\n  /*\n  <-- Modifiers -->\n  */\n\n  // If the contract is paused, stop the modified function\n  modifier checkIfPaused() {\n    require(contractPaused == false);\n    _;\n  }\n\n  // Reusable code to return any extra funds sent to the contract\n  modifier returnExtraPayment(uint _wager) {\n    _; // This function modifier code executes after its parent function resolves\n    uint amountToRefund = msg.value.sub(_wager);\n    msg.sender.transfer(amountToRefund);\n  }\n\n  // Reusable code to check that a valid _move (string) was submitted\n  modifier validateMove(string _move) {\n    require(\n      keccak256(_move) == keccak256('Rock') ||\n      keccak256(_move) == keccak256('Paper') ||\n      keccak256(_move) == keccak256('Scissors')\n    );\n    _;\n  }\n\n  // Reusable code to check that a valid _password was submitted\n  modifier validatePassword(string _password) {\n    require(keccak256(_password) != emptyStringHash);\n    _;\n  }\n\n  // Reusable code to check that a valid _wager was submitted and that enough funds were sent to pay it\n  modifier validateWager(uint _wager) {\n    require(\n      msg.value >= _wager &&\n      _wager >= minimumWager\n    );\n    _;\n  }\n\n  // When attempting to reveal your move, first check if the game expired and handle accordingly\n  modifier checkGameExpiration(uint _gameId) {\n    Game storage game = games[_gameId];\n    uint totalPrizePool = game.wager.mul(2);\n\n    // If the game is expired, handle payments then set the status BEFORE payment is issued, to prevent a recursive call attack\n    /// @dev The game.gameExpirationBlock is set to 0 at game creation and is changed to the real expiration when a challenger joins\n    if (block.number >= game.gameExpirationBlock && game.gameExpirationBlock != 0 && game.status != Status.Expired) {\n      game.status = Status.Expired;\n\n      // If only the challenger revealed, pay them\n      if (\n        keccak256(game.creatorMove) == emptyStringHash &&\n        keccak256(game.challengerMove) != emptyStringHash\n        ) { game.challenger.transfer(totalPrizePool); }\n\n      // If only the creator revealed, pay them\n      else if (\n        keccak256(game.creatorMove) != emptyStringHash &&\n        keccak256(game.challengerMove) == emptyStringHash\n        ) { game.creator.transfer(totalPrizePool); }\n\n      // If neither of the players are revealed and the game is expired, refund both players\n      else if (\n        keccak256(game.creatorMove) == emptyStringHash &&\n        keccak256(game.challengerMove) == emptyStringHash\n        ) {\n        game.creator.transfer(game.wager);\n        game.challenger.transfer(game.wager);\n      }\n\n      revert(); // Ends the parent function without continuing (uses the same opcode as require())\n    }\n\n    else {\n      _; // If the game is not expired, carry on\n    }\n  }\n\n\n  /*\n  <-- Functions -->\n  */\n\n  // Players can create a game by submitting their wager, using a password to encrypt their move\n  function createGame(string _move, string _password, uint _wager) public payable checkIfPaused() validateMove(_move) validatePassword(_password) validateWager(_wager) returnExtraPayment(_wager) {\n    games[gameIdCounter] = Game({ // Create a new game\n      gameId: gameIdCounter,\n      wager: _wager,\n      gameExpirationBlock: 0,\n      creator: msg.sender,\n      challenger: 0x0,\n      winner: 0x0,\n      creatorEncryptedMove: keccak256(_move, msg.sender, _password), // Encrypted using the user's password\n      challengerEncryptedMove: emptyStringHash,\n      creatorMove: '',\n      challengerMove: '',\n      status: Status.Open\n    });\n    gameIdCounter = gameIdCounter.add(1); // Prep the counter for the next game\n  }\n\n  // Players can cancel their open game and get their wager deposits back\n  function cancelGame(uint _gameId) public checkIfPaused() {\n    Game storage game = games[_gameId];\n    require(\n      msg.sender == game.creator &&\n      game.status == Status.Open\n    );\n    game.status = Status.Cancelled;\n    game.creator.transfer(game.wager); /// @dev Called after state changes to prevent recursive call attacks\n  }\n\n  // Opponent can join a open game by submitting his/her entry fee and their encrypted submission\n  function joinGame(uint _gameId, string _move, string _password) public payable checkIfPaused() validateMove(_move) validatePassword(_password) validateWager(games[_gameId].wager) returnExtraPayment(games[_gameId].wager) {\n    Game storage game = games[_gameId]; // Too bad Solidity doesn't let you define local variables in function arguments like JavaScript\n    require(\n      game.creator != msg.sender && // You can't challange yourself\n      game.status == Status.Open\n    );\n    game.status = Status.AwaitingReveals;\n    game.challenger = msg.sender;\n    game.gameExpirationBlock = block.number.add(gameBlockTimeLimit);\n    game.challengerEncryptedMove = keccak256(_move, msg.sender, _password); // Encrypted using the user's password\n  }\n\n  // Allow players to reveal their moves by providing their password and repeating their move\n  function revealMove(uint _gameId, string _move, string _password) public checkIfPaused() checkGameExpiration(_gameId) validateMove(_move) validatePassword(_password) {\n    Game storage game = games[_gameId];\n    require(\n      game.status == Status.AwaitingReveals ||\n      game.status == Status.AwaitingCreatorReveal ||\n      game.status == Status.AwaitingChallengerReveal\n    );\n\n    if (msg.sender == game.creator) { // If the creator reveals\n      require(game.creatorEncryptedMove == keccak256(_move, msg.sender, _password));\n      game.creatorMove = _move;\n      game.status = Status.AwaitingChallengerReveal;\n    } else if (msg.sender == game.challenger) { // If the challenger reveals\n      require(game.challengerEncryptedMove == keccak256(_move, msg.sender, _password));\n      game.challengerMove = _move;\n      game.status = Status.AwaitingCreatorReveal;\n    } else { // Return the poor stranger his/her remaining gas\n      revert();\n    }\n\n    if (keccak256(game.creatorMove) != emptyStringHash && keccak256(game.challengerMove) != emptyStringHash) { // If both players' moves are revealed, determine the winner\n      determineWinner(_gameId);\n    }\n  }\n\n  // If both player's answers are revealed, determine the winner or if it's a tie, and pay out accordingly\n  function determineWinner(uint _gameId) internal checkIfPaused() {\n    Game storage game = games[_gameId];\n    uint totalPrizePool = game.wager.mul(2);\n    require(\n      keccak256(game.creatorMove) != emptyStringHash &&\n      keccak256(game.challengerMove) != emptyStringHash\n    );\n\n    /// @dev i.e. moveWinsAgainst['Rock'] returns 'Paper'\n    if (keccak256(game.creatorMove) == keccak256(game.challengerMove)) { // If both players tie, refund both players\n      game.creator.transfer(game.wager);\n      game.challenger.transfer(game.wager);\n    } else if (keccak256(moveWinsAgainst[game.creatorMove]) == keccak256(game.challengerMove)) { // The challenger wins\n      game.winner = game.challenger;\n      game.winner.transfer(totalPrizePool);\n    } else if (keccak256(moveWinsAgainst[game.challengerMove]) == keccak256(game.creatorMove)) { // The creator wins\n      game.winner = game.creator;\n      game.winner.transfer(totalPrizePool);\n    } else { // Refund the poor stranger his/her remaining gas\n      revert();\n    }\n    game.status = Status.Finished;\n  }\n\n}\n",
  "sourcePath": "/Users/joelfoster/GitHub/rock-paper-scissors/contracts/RockPaperScissors.sol",
  "compiler": {
    "name": "solc",
    "version": "0.4.24+commit.e67f0147.Emscripten.clang"
  },
  "schemaVersion": "2.0.0",
  "updatedAt": "2018-08-23T17:10:45.676Z"
}