{
  "contractName": "RockPaperScissors",
  "abi": [
    {
      "constant": true,
      "inputs": [
        {
          "name": "",
          "type": "uint256"
        }
      ],
      "name": "games",
      "outputs": [
        {
          "name": "gameId",
          "type": "uint256"
        },
        {
          "name": "wager",
          "type": "uint256"
        },
        {
          "name": "gameExpirationBlock",
          "type": "uint256"
        },
        {
          "name": "creator",
          "type": "address"
        },
        {
          "name": "challenger",
          "type": "address"
        },
        {
          "name": "winner",
          "type": "address"
        },
        {
          "name": "creatorEncryptedMove",
          "type": "bytes32"
        },
        {
          "name": "challengerEncryptedMove",
          "type": "bytes32"
        },
        {
          "name": "creatorMove",
          "type": "string"
        },
        {
          "name": "challengerMove",
          "type": "string"
        },
        {
          "name": "status",
          "type": "uint8"
        }
      ],
      "payable": false,
      "stateMutability": "view",
      "type": "function"
    },
    {
      "constant": true,
      "inputs": [],
      "name": "gameIdCounter",
      "outputs": [
        {
          "name": "",
          "type": "uint256"
        }
      ],
      "payable": false,
      "stateMutability": "view",
      "type": "function"
    },
    {
      "constant": true,
      "inputs": [],
      "name": "gameBlockTimeLimit",
      "outputs": [
        {
          "name": "",
          "type": "uint256"
        }
      ],
      "payable": false,
      "stateMutability": "view",
      "type": "function"
    },
    {
      "constant": false,
      "inputs": [],
      "name": "renounceOwnership",
      "outputs": [],
      "payable": false,
      "stateMutability": "nonpayable",
      "type": "function"
    },
    {
      "constant": true,
      "inputs": [],
      "name": "contractPaused",
      "outputs": [
        {
          "name": "",
          "type": "bool"
        }
      ],
      "payable": false,
      "stateMutability": "view",
      "type": "function"
    },
    {
      "constant": true,
      "inputs": [],
      "name": "owner",
      "outputs": [
        {
          "name": "",
          "type": "address"
        }
      ],
      "payable": false,
      "stateMutability": "view",
      "type": "function"
    },
    {
      "constant": true,
      "inputs": [],
      "name": "minimumWager",
      "outputs": [
        {
          "name": "",
          "type": "uint256"
        }
      ],
      "payable": false,
      "stateMutability": "view",
      "type": "function"
    },
    {
      "constant": false,
      "inputs": [
        {
          "name": "_newOwner",
          "type": "address"
        }
      ],
      "name": "transferOwnership",
      "outputs": [],
      "payable": false,
      "stateMutability": "nonpayable",
      "type": "function"
    },
    {
      "inputs": [
        {
          "name": "_minimumWager",
          "type": "uint256"
        }
      ],
      "payable": false,
      "stateMutability": "nonpayable",
      "type": "constructor"
    },
    {
      "anonymous": false,
      "inputs": [
        {
          "indexed": false,
          "name": "gameId",
          "type": "uint256"
        },
        {
          "indexed": false,
          "name": "wager",
          "type": "uint256"
        },
        {
          "indexed": true,
          "name": "creator",
          "type": "address"
        },
        {
          "indexed": true,
          "name": "challenger",
          "type": "address"
        },
        {
          "indexed": true,
          "name": "status",
          "type": "uint8"
        }
      ],
      "name": "GameUpdates",
      "type": "event"
    },
    {
      "anonymous": false,
      "inputs": [
        {
          "indexed": true,
          "name": "previousOwner",
          "type": "address"
        }
      ],
      "name": "OwnershipRenounced",
      "type": "event"
    },
    {
      "anonymous": false,
      "inputs": [
        {
          "indexed": true,
          "name": "previousOwner",
          "type": "address"
        },
        {
          "indexed": true,
          "name": "newOwner",
          "type": "address"
        }
      ],
      "name": "OwnershipTransferred",
      "type": "event"
    },
    {
      "constant": false,
      "inputs": [],
      "name": "circuitBreaker",
      "outputs": [],
      "payable": false,
      "stateMutability": "nonpayable",
      "type": "function"
    },
    {
      "constant": false,
      "inputs": [
        {
          "name": "_move",
          "type": "string"
        },
        {
          "name": "_password",
          "type": "string"
        },
        {
          "name": "_wager",
          "type": "uint256"
        }
      ],
      "name": "createGame",
      "outputs": [],
      "payable": true,
      "stateMutability": "payable",
      "type": "function"
    },
    {
      "constant": false,
      "inputs": [
        {
          "name": "_gameId",
          "type": "uint256"
        }
      ],
      "name": "cancelGame",
      "outputs": [],
      "payable": false,
      "stateMutability": "nonpayable",
      "type": "function"
    },
    {
      "constant": false,
      "inputs": [
        {
          "name": "_move",
          "type": "string"
        },
        {
          "name": "_password",
          "type": "string"
        },
        {
          "name": "_gameId",
          "type": "uint256"
        }
      ],
      "name": "joinGame",
      "outputs": [],
      "payable": true,
      "stateMutability": "payable",
      "type": "function"
    },
    {
      "constant": false,
      "inputs": [
        {
          "name": "_move",
          "type": "string"
        },
        {
          "name": "_password",
          "type": "string"
        },
        {
          "name": "_gameId",
          "type": "uint256"
        }
      ],
      "name": "revealMove",
      "outputs": [],
      "payable": false,
      "stateMutability": "nonpayable",
      "type": "function"
    }
  ],
  "bytecode": "0x608060405260008060146101000a81548160ff02191690831515021790555060405180600001905060405180910390206004906000191690553480156200004557600080fd5b50604051602080620037da83398101806040528101908080519060200190929190505050336000806101000a81548173ffffffffffffffffffffffffffffffffffffffff021916908373ffffffffffffffffffffffffffffffffffffffff160217905550600060018190555080600281905550611680600381905550620000da620000e1640100000000026401000000009004565b5062000330565b6040805190810160405280600581526020017f5061706572000000000000000000000000000000000000000000000000000000815250600660405180807f526f636b000000000000000000000000000000000000000000000000000000008152506004019050908152602001604051809103902090805190602001906200016a92919062000281565b506040805190810160405280600881526020017f53636973736f7273000000000000000000000000000000000000000000000000815250600660405180807f5061706572000000000000000000000000000000000000000000000000000000815250600501905090815260200160405180910390209080519060200190620001f492919062000281565b506040805190810160405280600481526020017f526f636b00000000000000000000000000000000000000000000000000000000815250600660405180807f53636973736f72730000000000000000000000000000000000000000000000008152506008019050908152602001604051809103902090805190602001906200027e92919062000281565b50565b828054600181600116156101000203166002900490600052602060002090601f016020900481019282601f10620002c457805160ff1916838001178555620002f5565b82800160010185558215620002f5579182015b82811115620002f4578251825591602001919060010190620002d7565b5b50905062000304919062000308565b5090565b6200032d91905b80821115620003295760008160009055506001016200030f565b5090565b90565b61349a80620003406000396000f3006080604052600436106100c5576000357c0100000000000000000000000000000000000000000000000000000000900463ffffffff168063117a5b90146100ca57806316efd941146102bd5780631bb412d6146102d457806334b1097f146102ff5780633e3b87741461032a57806369958ab9146103e3578063715018a6146104105780638a67456a146104275780638da5cb5b1461045657806391898efd146104ad578063b19068c714610559578063f2fde38b14610584578063fab660ca146105c7575b600080fd5b3480156100d657600080fd5b506100f560048036038101908080359060200190929190505050610673565b604051808c81526020018b81526020018a81526020018973ffffffffffffffffffffffffffffffffffffffff1673ffffffffffffffffffffffffffffffffffffffff1681526020018873ffffffffffffffffffffffffffffffffffffffff1673ffffffffffffffffffffffffffffffffffffffff1681526020018773ffffffffffffffffffffffffffffffffffffffff1673ffffffffffffffffffffffffffffffffffffffff1681526020018660001916600019168152602001856000191660001916815260200180602001806020018460068111156101d157fe5b60ff168152602001838103835286818151815260200191508051906020019080838360005b838110156102115780820151818401526020810190506101f6565b50505050905090810190601f16801561023e5780820380516001836020036101000a031916815260200191505b50838103825285818151815260200191508051906020019080838360005b8381101561027757808201518184015260208101905061025c565b50505050905090810190601f1680156102a45780820380516001836020036101000a031916815260200191505b509d505050505050505050505050505060405180910390f35b3480156102c957600080fd5b506102d261086a565b005b3480156102e057600080fd5b506102e961091e565b6040518082815260200191505060405180910390f35b34801561030b57600080fd5b50610314610924565b6040518082815260200191505060405180910390f35b34801561033657600080fd5b506103e1600480360381019080803590602001908201803590602001908080601f0160208091040260200160405190810160405280939291908181526020018383808284378201915050505050509192919290803590602001908201803590602001908080601f01602080910402602001604051908101604052809392919081815260200183838082843782019150505050505091929192908035906020019092919050505061092a565b005b3480156103ef57600080fd5b5061040e600480360381019080803590602001909291905050506118b8565b005b34801561041c57600080fd5b50610425611a87565b005b34801561043357600080fd5b5061043c611b89565b604051808215151515815260200191505060405180910390f35b34801561046257600080fd5b5061046b611b9c565b604051808273ffffffffffffffffffffffffffffffffffffffff1673ffffffffffffffffffffffffffffffffffffffff16815260200191505060405180910390f35b610557600480360381019080803590602001908201803590602001908080601f0160208091040260200160405190810160405280939291908181526020018383808284378201915050505050509192919290803590602001908201803590602001908080601f016020809104026020016040519081016040528093929190818152602001838380828437820191505050505050919291929080359060200190929190505050611bc1565b005b34801561056557600080fd5b5061056e6122bd565b6040518082815260200191505060405180910390f35b34801561059057600080fd5b506105c5600480360381019080803573ffffffffffffffffffffffffffffffffffffffff1690602001909291905050506122c3565b005b610671600480360381019080803590602001908201803590602001908080601f0160208091040260200160405190810160405280939291908181526020018383808284378201915050505050509192919290803590602001908201803590602001908080601f01602080910402602001604051908101604052809392919081815260200183838082843782019150505050505091929192908035906020019092919050505061232a565b005b60056020528060005260406000206000915090508060000154908060010154908060020154908060030160009054906101000a900473ffffffffffffffffffffffffffffffffffffffff16908060040160009054906101000a900473ffffffffffffffffffffffffffffffffffffffff16908060050160009054906101000a900473ffffffffffffffffffffffffffffffffffffffff1690806006015490806007015490806008018054600181600116156101000203166002900480601f0160208091040260200160405190810160405280929190818152602001828054600181600116156101000203166002900480156107af5780601f10610784576101008083540402835291602001916107af565b820191906000526020600020905b81548152906001019060200180831161079257829003601f168201915b505050505090806009018054600181600116156101000203166002900480601f01602080910402602001604051908101604052809291908181526020018280546001816001161561010002031660029004801561084d5780601f106108225761010080835404028352916020019161084d565b820191906000526020600020905b81548152906001019060200180831161083057829003601f168201915b50505050509080600a0160009054906101000a900460ff1690508b565b6000809054906101000a900473ffffffffffffffffffffffffffffffffffffffff1673ffffffffffffffffffffffffffffffffffffffff163373ffffffffffffffffffffffffffffffffffffffff161415156108c557600080fd5b60001515600060149054906101000a900460ff1615151415610901576001600060146101000a81548160ff02191690831515021790555061091c565b60008060146101000a81548160ff0219169083151502179055505b565b60015481565b60035481565b6000801515600060149054906101000a900460ff16151514151561094d57600080fd5b8160008060056000848152602001908152602001600020915061097e6002836001015461295790919063ffffffff16565b90508160020154431015801561099957506000826002015414155b80156109cc57506006808111156109ac57fe5b82600a0160009054906101000a900460ff1660068111156109c957fe5b14155b15610f7f57600682600a0160006101000a81548160ff021916908360068111156109f257fe5b0217905550600680811115610a0357fe5b8260040160009054906101000a900473ffffffffffffffffffffffffffffffffffffffff1673ffffffffffffffffffffffffffffffffffffffff168360030160009054906101000a900473ffffffffffffffffffffffffffffffffffffffff1673ffffffffffffffffffffffffffffffffffffffff167f675aa97ba356d889444b3cd7a4a9c1f072290016ccf9d436ee69e76b85d6790885600001548660010154604051808381526020018281526020019250505060405180910390a460045460001916826008016040518082805460018160011615610100020316600290048015610b265780601f10610b04576101008083540402835291820191610b26565b820191906000526020600020905b815481529060010190602001808311610b12575b5050915050604051809103902060001916148015610bb9575060045460001916826009016040518082805460018160011615610100020316600290048015610ba55780601f10610b83576101008083540402835291820191610ba5565b820191906000526020600020905b815481529060010190602001808311610b91575b505091505060405180910390206000191614155b15610c2e578160040160009054906101000a900473ffffffffffffffffffffffffffffffffffffffff1673ffffffffffffffffffffffffffffffffffffffff166108fc829081150290604051600060405180830381858888f19350505050158015610c28573d6000803e3d6000fd5b50610f7a565b60045460001916826008016040518082805460018160011615610100020316600290048015610c945780601f10610c72576101008083540402835291820191610c94565b820191906000526020600020905b815481529060010190602001808311610c80575b505091505060405180910390206000191614158015610d27575060045460001916826009016040518082805460018160011615610100020316600290048015610d145780601f10610cf2576101008083540402835291820191610d14565b820191906000526020600020905b815481529060010190602001808311610d00575b5050915050604051809103902060001916145b15610d9c578160030160009054906101000a900473ffffffffffffffffffffffffffffffffffffffff1673ffffffffffffffffffffffffffffffffffffffff166108fc829081150290604051600060405180830381858888f19350505050158015610d96573d6000803e3d6000fd5b50610f79565b60045460001916826008016040518082805460018160011615610100020316600290048015610e025780601f10610de0576101008083540402835291820191610e02565b820191906000526020600020905b815481529060010190602001808311610dee575b5050915050604051809103902060001916148015610e94575060045460001916826009016040518082805460018160011615610100020316600290048015610e815780601f10610e5f576101008083540402835291820191610e81565b820191906000526020600020905b815481529060010190602001808311610e6d575b5050915050604051809103902060001916145b15610f78578160030160009054906101000a900473ffffffffffffffffffffffffffffffffffffffff1673ffffffffffffffffffffffffffffffffffffffff166108fc83600101549081150290604051600060405180830381858888f19350505050158015610f07573d6000803e3d6000fd5b508160040160009054906101000a900473ffffffffffffffffffffffffffffffffffffffff1673ffffffffffffffffffffffffffffffffffffffff166108fc83600101549081150290604051600060405180830381858888f19350505050158015610f76573d6000803e3d6000fd5b505b5b5b600080fd5b8660405180807f526f636b000000000000000000000000000000000000000000000000000000008152506004019050604051809103902060001916816040518082805190602001908083835b602083101515610ff05780518252602082019150602081019050602083039250610fcb565b6001836020036101000a03801982511681845116808217855250505050505090500191505060405180910390206000191614806110cb575060405180807f50617065720000000000000000000000000000000000000000000000000000008152506005019050604051809103902060001916816040518082805190602001908083835b6020831015156110985780518252602082019150602081019050602083039250611073565b6001836020036101000a038019825116818451168082178552505050505050905001915050604051809103902060001916145b80611174575060405180807f53636973736f72730000000000000000000000000000000000000000000000008152506008019050604051809103902060001916816040518082805190602001908083835b602083101515611141578051825260208201915060208101905060208303925061111c565b6001836020036101000a038019825116818451168082178552505050505050905001915050604051809103902060001916145b151561117f57600080fd5b8660045460001916816040518082805190602001908083835b6020831015156111bd5780518252602082019150602081019050602083039250611198565b6001836020036101000a038019825116818451168082178552505050505050905001915050604051809103902060001916141515156111fb57600080fd5b6005600088815260200190815260200160002095506002600681111561121d57fe5b86600a0160009054906101000a900460ff16600681111561123a57fe5b148061126d57506003600681111561124e57fe5b86600a0160009054906101000a900460ff16600681111561126b57fe5b145b8061129f57506004600681111561128057fe5b86600a0160009054906101000a900460ff16600681111561129d57fe5b145b15156112aa57600080fd5b8560030160009054906101000a900473ffffffffffffffffffffffffffffffffffffffff1673ffffffffffffffffffffffffffffffffffffffff163373ffffffffffffffffffffffffffffffffffffffff161415611524578833896040518084805190602001908083835b60208310151561133a5780518252602082019150602081019050602083039250611315565b6001836020036101000a0380198251168184511680821785525050505050509050018373ffffffffffffffffffffffffffffffffffffffff1673ffffffffffffffffffffffffffffffffffffffff166c0100000000000000000000000002815260140182805190602001908083835b6020831015156113ce57805182526020820191506020810190506020830392506113a9565b6001836020036101000a038019825116818451168082178552505050505050905001935050505060405180910390206000191686600601546000191614151561141657600080fd5b8886600801908051906020019061142e929190613349565b50600486600a0160006101000a81548160ff0219169083600681111561145057fe5b02179055506004600681111561146257fe5b8660040160009054906101000a900473ffffffffffffffffffffffffffffffffffffffff1673ffffffffffffffffffffffffffffffffffffffff168760030160009054906101000a900473ffffffffffffffffffffffffffffffffffffffff1673ffffffffffffffffffffffffffffffffffffffff167f675aa97ba356d889444b3cd7a4a9c1f072290016ccf9d436ee69e76b85d6790889600001548a60010154604051808381526020018281526020019250505060405180910390a46117a4565b8560040160009054906101000a900473ffffffffffffffffffffffffffffffffffffffff1673ffffffffffffffffffffffffffffffffffffffff163373ffffffffffffffffffffffffffffffffffffffff16141561179e578833896040518084805190602001908083835b6020831015156115b4578051825260208201915060208101905060208303925061158f565b6001836020036101000a0380198251168184511680821785525050505050509050018373ffffffffffffffffffffffffffffffffffffffff1673ffffffffffffffffffffffffffffffffffffffff166c0100000000000000000000000002815260140182805190602001908083835b6020831015156116485780518252602082019150602081019050602083039250611623565b6001836020036101000a038019825116818451168082178552505050505050905001935050505060405180910390206000191686600701546000191614151561169057600080fd5b888660090190805190602001906116a8929190613349565b50600386600a0160006101000a81548160ff021916908360068111156116ca57fe5b0217905550600360068111156116dc57fe5b8660040160009054906101000a900473ffffffffffffffffffffffffffffffffffffffff1673ffffffffffffffffffffffffffffffffffffffff168760030160009054906101000a900473ffffffffffffffffffffffffffffffffffffffff1673ffffffffffffffffffffffffffffffffffffffff167f675aa97ba356d889444b3cd7a4a9c1f072290016ccf9d436ee69e76b85d6790889600001548a60010154604051808381526020018281526020019250505060405180910390a46117a3565b600080fd5b5b6004546000191686600801604051808280546001816001161561010002031660029004801561180a5780601f106117e857610100808354040283529182019161180a565b820191906000526020600020905b8154815290600101906020018083116117f6575b50509150506040518091039020600019161415801561189e57506004546000191686600901604051808280546001816001161561010002031660029004801561188a5780601f1061186857610100808354040283529182019161188a565b820191906000526020600020905b815481529060010190602001808311611876575b505091505060405180910390206000191614155b156118ad576118ac87612995565b5b505050505050505050565b6000801515600060149054906101000a900460ff1615151415156118db57600080fd5b6005600083815260200190815260200160002090508060030160009054906101000a900473ffffffffffffffffffffffffffffffffffffffff1673ffffffffffffffffffffffffffffffffffffffff163373ffffffffffffffffffffffffffffffffffffffff1614801561197657506000600681111561195757fe5b81600a0160009054906101000a900460ff16600681111561197457fe5b145b151561198157600080fd5b600181600a0160006101000a81548160ff021916908360068111156119a257fe5b02179055508060030160009054906101000a900473ffffffffffffffffffffffffffffffffffffffff1673ffffffffffffffffffffffffffffffffffffffff166108fc82600101549081150290604051600060405180830381858888f19350505050158015611a15573d6000803e3d6000fd5b5060016006811115611a2357fe5b60003373ffffffffffffffffffffffffffffffffffffffff167f675aa97ba356d889444b3cd7a4a9c1f072290016ccf9d436ee69e76b85d6790884600001548560010154604051808381526020018281526020019250505060405180910390a45050565b6000809054906101000a900473ffffffffffffffffffffffffffffffffffffffff1673ffffffffffffffffffffffffffffffffffffffff163373ffffffffffffffffffffffffffffffffffffffff16141515611ae257600080fd5b6000809054906101000a900473ffffffffffffffffffffffffffffffffffffffff1673ffffffffffffffffffffffffffffffffffffffff167ff8df31144d9c2f0f6b59d69b8b98abd5459d07f2742c4df920b25aae33c6482060405160405180910390a260008060006101000a81548173ffffffffffffffffffffffffffffffffffffffff021916908373ffffffffffffffffffffffffffffffffffffffff160217905550565b600060149054906101000a900460ff1681565b6000809054906101000a900473ffffffffffffffffffffffffffffffffffffffff1681565b60001515600060149054906101000a900460ff161515141515611be357600080fd5b8260405180807f526f636b000000000000000000000000000000000000000000000000000000008152506004019050604051809103902060001916816040518082805190602001908083835b602083101515611c545780518252602082019150602081019050602083039250611c2f565b6001836020036101000a0380198251168184511680821785525050505050509050019150506040518091039020600019161480611d2f575060405180807f50617065720000000000000000000000000000000000000000000000000000008152506005019050604051809103902060001916816040518082805190602001908083835b602083101515611cfc5780518252602082019150602081019050602083039250611cd7565b6001836020036101000a038019825116818451168082178552505050505050905001915050604051809103902060001916145b80611dd8575060405180807f53636973736f72730000000000000000000000000000000000000000000000008152506008019050604051809103902060001916816040518082805190602001908083835b602083101515611da55780518252602082019150602081019050602083039250611d80565b6001836020036101000a038019825116818451168082178552505050505050905001915050604051809103902060001916145b1515611de357600080fd5b8260045460001916816040518082805190602001908083835b602083101515611e215780518252602082019150602081019050602083039250611dfc565b6001836020036101000a03801982511681845116808217855250505050505090500191505060405180910390206000191614151515611e5f57600080fd5b82803410158015611e7257506002548110155b1515611e7d57600080fd5b836000610160604051908101604052806001548152602001878152602001600081526020013373ffffffffffffffffffffffffffffffffffffffff168152602001600073ffffffffffffffffffffffffffffffffffffffff168152602001600073ffffffffffffffffffffffffffffffffffffffff16815260200189338a6040518084805190602001908083835b602083101515611f305780518252602082019150602081019050602083039250611f0b565b6001836020036101000a0380198251168184511680821785525050505050509050018373ffffffffffffffffffffffffffffffffffffffff1673ffffffffffffffffffffffffffffffffffffffff166c0100000000000000000000000002815260140182805190602001908083835b602083101515611fc45780518252602082019150602081019050602083039250611f9f565b6001836020036101000a0380198251168184511680821785525050505050509050019350505050604051809103902060001916815260200160045460001916815260200160206040519081016040528060008152508152602001602060405190810160405280600081525081526020016000600681111561204157fe5b81525060056000600154815260200190815260200160002060008201518160000155602082015181600101556040820151816002015560608201518160030160006101000a81548173ffffffffffffffffffffffffffffffffffffffff021916908373ffffffffffffffffffffffffffffffffffffffff16021790555060808201518160040160006101000a81548173ffffffffffffffffffffffffffffffffffffffff021916908373ffffffffffffffffffffffffffffffffffffffff16021790555060a08201518160050160006101000a81548173ffffffffffffffffffffffffffffffffffffffff021916908373ffffffffffffffffffffffffffffffffffffffff16021790555060c0820151816006019060001916905560e082015181600701906000191690556101008201518160080190805190602001906121899291906133c9565b506101208201518160090190805190602001906121a79291906133c9565b5061014082015181600a0160006101000a81548160ff021916908360068111156121cd57fe5b0217905550905050600060068111156121e257fe5b60003373ffffffffffffffffffffffffffffffffffffffff167f675aa97ba356d889444b3cd7a4a9c1f072290016ccf9d436ee69e76b85d679086001548a604051808381526020018281526020019250505060405180910390a46122516001805461320d90919063ffffffff16565b60018190555061226a823461322e90919063ffffffff16565b90503373ffffffffffffffffffffffffffffffffffffffff166108fc829081150290604051600060405180830381858888f193505050501580156122b2573d6000803e3d6000fd5b505050505050505050565b60025481565b6000809054906101000a900473ffffffffffffffffffffffffffffffffffffffff1673ffffffffffffffffffffffffffffffffffffffff163373ffffffffffffffffffffffffffffffffffffffff1614151561231e57600080fd5b6123278161324f565b50565b6000801515600060149054906101000a900460ff16151514151561234d57600080fd5b8360405180807f526f636b000000000000000000000000000000000000000000000000000000008152506004019050604051809103902060001916816040518082805190602001908083835b6020831015156123be5780518252602082019150602081019050602083039250612399565b6001836020036101000a0380198251168184511680821785525050505050509050019150506040518091039020600019161480612499575060405180807f50617065720000000000000000000000000000000000000000000000000000008152506005019050604051809103902060001916816040518082805190602001908083835b6020831015156124665780518252602082019150602081019050602083039250612441565b6001836020036101000a038019825116818451168082178552505050505050905001915050604051809103902060001916145b80612542575060405180807f53636973736f72730000000000000000000000000000000000000000000000008152506008019050604051809103902060001916816040518082805190602001908083835b60208310151561250f57805182526020820191506020810190506020830392506124ea565b6001836020036101000a038019825116818451168082178552505050505050905001915050604051809103902060001916145b151561254d57600080fd5b8360045460001916816040518082805190602001908083835b60208310151561258b5780518252602082019150602081019050602083039250612566565b6001836020036101000a038019825116818451168082178552505050505050905001915050604051809103902060001916141515156125c957600080fd5b60056000858152602001908152602001600020600101548034101580156125f257506002548110155b15156125fd57600080fd5b600560008681526020019081526020016000206001015460006005600088815260200190815260200160002095503373ffffffffffffffffffffffffffffffffffffffff168660030160009054906101000a900473ffffffffffffffffffffffffffffffffffffffff1673ffffffffffffffffffffffffffffffffffffffff16141580156126b257506000600681111561269357fe5b86600a0160009054906101000a900460ff1660068111156126b057fe5b145b15156126bd57600080fd5b600286600a0160006101000a81548160ff021916908360068111156126de57fe5b0217905550338660040160006101000a81548173ffffffffffffffffffffffffffffffffffffffff021916908373ffffffffffffffffffffffffffffffffffffffff16021790555061273b6003544361320d90919063ffffffff16565b86600201819055508833896040518084805190602001908083835b60208310151561277b5780518252602082019150602081019050602083039250612756565b6001836020036101000a0380198251168184511680821785525050505050509050018373ffffffffffffffffffffffffffffffffffffffff1673ffffffffffffffffffffffffffffffffffffffff166c0100000000000000000000000002815260140182805190602001908083835b60208310151561280f57805182526020820191506020810190506020830392506127ea565b6001836020036101000a038019825116818451168082178552505050505050905001935050505060405180910390208660070181600019169055506002600681111561285757fe5b3373ffffffffffffffffffffffffffffffffffffffff168760030160009054906101000a900473ffffffffffffffffffffffffffffffffffffffff1673ffffffffffffffffffffffffffffffffffffffff167f675aa97ba356d889444b3cd7a4a9c1f072290016ccf9d436ee69e76b85d6790889600001548a60010154604051808381526020018281526020019250505060405180910390a4612903823461322e90919063ffffffff16565b90503373ffffffffffffffffffffffffffffffffffffffff166108fc829081150290604051600060405180830381858888f1935050505015801561294b573d6000803e3d6000fd5b50505050505050505050565b600080600084141561296c576000915061298e565b828402905082848281151561297d57fe5b0414151561298a57600080fd5b8091505b5092915050565b60008060001515600060149054906101000a900460ff1615151415156129ba57600080fd5b6005600084815260200190815260200160002091506129e76002836001015461295790919063ffffffff16565b905060045460001916826008016040518082805460018160011615610100020316600290048015612a4f5780601f10612a2d576101008083540402835291820191612a4f565b820191906000526020600020905b815481529060010190602001808311612a3b575b505091505060405180910390206000191614158015612ae3575060045460001916826009016040518082805460018160011615610100020316600290048015612acf5780601f10612aad576101008083540402835291820191612acf565b820191906000526020600020905b815481529060010190602001808311612abb575b505091505060405180910390206000191614155b1515612aee57600080fd5b816009016040518082805460018160011615610100020316600290048015612b4d5780601f10612b2b576101008083540402835291820191612b4d565b820191906000526020600020905b815481529060010190602001808311612b39575b5050915050604051809103902060001916826008016040518082805460018160011615610100020316600290048015612bbd5780601f10612b9b576101008083540402835291820191612bbd565b820191906000526020600020905b815481529060010190602001808311612ba9575b50509150506040518091039020600019161415612cb7578160030160009054906101000a900473ffffffffffffffffffffffffffffffffffffffff1673ffffffffffffffffffffffffffffffffffffffff166108fc83600101549081150290604051600060405180830381858888f19350505050158015612c42573d6000803e3d6000fd5b508160040160009054906101000a900473ffffffffffffffffffffffffffffffffffffffff1673ffffffffffffffffffffffffffffffffffffffff166108fc83600101549081150290604051600060405180830381858888f19350505050158015612cb1573d6000803e3d6000fd5b50613118565b816009016040518082805460018160011615610100020316600290048015612d165780601f10612cf4576101008083540402835291820191612d16565b820191906000526020600020905b815481529060010190602001808311612d02575b50509150506040518091039020600019166006836008016040518082805460018160011615610100020316600290048015612d885780601f10612d66576101008083540402835291820191612d88565b820191906000526020600020905b815481529060010190602001808311612d74575b505091505090815260200160405180910390206040518082805460018160011615610100020316600290048015612df65780601f10612dd4576101008083540402835291820191612df6565b820191906000526020600020905b815481529060010190602001808311612de2575b50509150506040518091039020600019161415612ee4578160040160009054906101000a900473ffffffffffffffffffffffffffffffffffffffff168260050160006101000a81548173ffffffffffffffffffffffffffffffffffffffff021916908373ffffffffffffffffffffffffffffffffffffffff1602179055508160050160009054906101000a900473ffffffffffffffffffffffffffffffffffffffff1673ffffffffffffffffffffffffffffffffffffffff166108fc829081150290604051600060405180830381858888f19350505050158015612ede573d6000803e3d6000fd5b50613117565b816008016040518082805460018160011615610100020316600290048015612f435780601f10612f21576101008083540402835291820191612f43565b820191906000526020600020905b815481529060010190602001808311612f2f575b50509150506040518091039020600019166006836009016040518082805460018160011615610100020316600290048015612fb55780601f10612f93576101008083540402835291820191612fb5565b820191906000526020600020905b815481529060010190602001808311612fa1575b5050915050908152602001604051809103902060405180828054600181600116156101000203166002900480156130235780601f10613001576101008083540402835291820191613023565b820191906000526020600020905b81548152906001019060200180831161300f575b50509150506040518091039020600019161415613111578160030160009054906101000a900473ffffffffffffffffffffffffffffffffffffffff168260050160006101000a81548173ffffffffffffffffffffffffffffffffffffffff021916908373ffffffffffffffffffffffffffffffffffffffff1602179055508160050160009054906101000a900473ffffffffffffffffffffffffffffffffffffffff1673ffffffffffffffffffffffffffffffffffffffff166108fc829081150290604051600060405180830381858888f1935050505015801561310b573d6000803e3d6000fd5b50613116565b600080fd5b5b5b600582600a0160006101000a81548160ff0219169083600681111561313957fe5b02179055506005600681111561314b57fe5b8260040160009054906101000a900473ffffffffffffffffffffffffffffffffffffffff1673ffffffffffffffffffffffffffffffffffffffff168360030160009054906101000a900473ffffffffffffffffffffffffffffffffffffffff1673ffffffffffffffffffffffffffffffffffffffff167f675aa97ba356d889444b3cd7a4a9c1f072290016ccf9d436ee69e76b85d6790885600001548660010154604051808381526020018281526020019250505060405180910390a4505050565b600080828401905083811015151561322457600080fd5b8091505092915050565b60008083831115151561324057600080fd5b82840390508091505092915050565b600073ffffffffffffffffffffffffffffffffffffffff168173ffffffffffffffffffffffffffffffffffffffff161415151561328b57600080fd5b8073ffffffffffffffffffffffffffffffffffffffff166000809054906101000a900473ffffffffffffffffffffffffffffffffffffffff1673ffffffffffffffffffffffffffffffffffffffff167f8be0079c531659141344cd1fd0a4f28419497f9722a3daafe3b4186f6b6457e060405160405180910390a3806000806101000a81548173ffffffffffffffffffffffffffffffffffffffff021916908373ffffffffffffffffffffffffffffffffffffffff16021790555050565b828054600181600116156101000203166002900490600052602060002090601f016020900481019282601f1061338a57805160ff19168380011785556133b8565b828001600101855582156133b8579182015b828111156133b757825182559160200191906001019061339c565b5b5090506133c59190613449565b5090565b828054600181600116156101000203166002900490600052602060002090601f016020900481019282601f1061340a57805160ff1916838001178555613438565b82800160010185558215613438579182015b8281111561343757825182559160200191906001019061341c565b5b5090506134459190613449565b5090565b61346b91905b8082111561346757600081600090555060010161344f565b5090565b905600a165627a7a72305820845e83df3ac66e01e175d188854c0702affd9799334102a17cb8d978438b1fba0029",
  "source": "pragma solidity ^0.4.24;\n\nimport \"./Ownable.sol\";\nimport \"./SafeMath.sol\";\n\ncontract RockPaperScissors is Ownable {\n\n  /*\n  <-- Global Variables, Data Structures, Constructor, Events, and Circuit Breaker -->\n  */\n\n  // The SafeMath library protects from overflows\n  using SafeMath for uint;\n\n  // Declare global variables\n  bool public contractPaused = false;\n  uint public gameIdCounter;\n  uint public minimumWager; // In wei, recommended: 5000000000000000 wei = .005 ether\n  uint public gameBlockTimeLimit;\n  bytes32 internal emptyStringHash = keccak256('');\n\n  // The Game object\n  struct Game {\n    uint gameId;\n    uint wager;\n    uint gameExpirationBlock;\n    address creator;\n    address challenger;\n    address winner;\n    bytes32 creatorEncryptedMove;\n    bytes32 challengerEncryptedMove;\n    string creatorMove;\n    string challengerMove;\n    Status status;\n  }\n\n  // Used by the front end to find open, in-progress, and completed games\n  event GameUpdates(uint gameId, uint wager, address indexed creator, address indexed challenger, Status indexed status);\n\n  // Game objects are identified by their gameId in a mapping called 'games', i.e. games[0] returns the first Game\n  mapping (uint => Game) public games;\n\n  // Game statuses\n  enum Status {\n    Open,\n    Cancelled,\n    AwaitingReveals,\n    AwaitingCreatorReveal,\n    AwaitingChallengerReveal,\n    Finished,\n    Expired\n  }\n\n  /// @dev i.e. moveWinsAgainst['Rock'] returns 'Paper'\n  mapping (string => string) internal moveWinsAgainst;\n\n  // Seeds the moveWinsAgainst mapping above\n  function seedMoveWinsAgainst() internal {\n    moveWinsAgainst['Rock'] = 'Paper';\n    moveWinsAgainst['Paper'] = 'Scissors';\n    moveWinsAgainst['Scissors'] = 'Rock';\n  }\n\n  // When the contract is deployed, set the owner and the global variables and seed the moveWinsAgainst mapping\n  constructor(uint _minimumWager) public {\n    gameIdCounter = 0;\n    minimumWager = _minimumWager; // In wei (1 eth = 1000000000000000000 wei)\n    gameBlockTimeLimit = 5760; // Roughly 24 hours @ a 15 second blocktime\n    seedMoveWinsAgainst();\n  }\n\n  // The contract owner can pause all functionality\n  function circuitBreaker() public onlyOwner {\n    if (contractPaused == false) { contractPaused = true; }\n    else { contractPaused = false; }\n  }\n\n\n  /*\n  <-- Modifiers -->\n  */\n\n  // If the contract is paused, stop the modified function\n  modifier checkIfPaused() {\n    require(contractPaused == false);\n    _;\n  }\n\n  // Reusable code to return any extra funds sent to the contract\n  modifier returnExtraPayment(uint _wager) {\n    _; // This function modifier code executes after its parent function resolves\n    uint amountToRefund = msg.value.sub(_wager);\n    msg.sender.transfer(amountToRefund);\n  }\n\n  // Reusable code to check that a valid _move (string) was submitted\n  /// @dev We can't compare strings in solidity, so instead we compare hashes of strings to see if they match\n  modifier validateMove(string _move) {\n    require(\n      keccak256(_move) == keccak256('Rock') ||\n      keccak256(_move) == keccak256('Paper') ||\n      keccak256(_move) == keccak256('Scissors')\n    );\n    _;\n  }\n\n  // Reusable code to check that a valid _password was submitted\n  modifier validatePassword(string _password) {\n    require(keccak256(_password) != emptyStringHash);\n    _;\n  }\n\n  // Reusable code to check that a valid _wager was submitted and that enough funds were sent to pay it\n  modifier validateWager(uint _wager) {\n    require(\n      msg.value >= _wager &&\n      _wager >= minimumWager\n    );\n    _;\n  }\n\n  // When attempting to reveal your move, first check if the game expired and handle accordingly\n  modifier checkGameExpiration(uint _gameId) {\n    Game storage game = games[_gameId];\n    uint totalPrizePool = game.wager.mul(2);\n\n    // If the game is expired, handle payments then set the status BEFORE payment is issued, to prevent a recursive call attack\n    /// @dev The game.gameExpirationBlock is set to 0 at game creation and is changed to the real expiration when a challenger joins\n    if (block.number >= game.gameExpirationBlock && game.gameExpirationBlock != 0 && game.status != Status.Expired) {\n      game.status = Status.Expired;\n      emit GameUpdates(game.gameId, game.wager, game.creator, game.challenger, Status.Expired);\n\n      // If only the challenger revealed, pay them\n      if (\n        keccak256(game.creatorMove) == emptyStringHash &&\n        keccak256(game.challengerMove) != emptyStringHash\n        ) { game.challenger.transfer(totalPrizePool); }\n\n      // If only the creator revealed, pay them\n      else if (\n        keccak256(game.creatorMove) != emptyStringHash &&\n        keccak256(game.challengerMove) == emptyStringHash\n        ) { game.creator.transfer(totalPrizePool); }\n\n      // If neither of the players are revealed and the game is expired, refund both players\n      else if (\n        keccak256(game.creatorMove) == emptyStringHash &&\n        keccak256(game.challengerMove) == emptyStringHash\n        ) {\n        game.creator.transfer(game.wager);\n        game.challenger.transfer(game.wager);\n      }\n\n      revert(); // Ends the parent function without continuing (uses the same opcode as require())\n    }\n\n    else {\n      _; // If the game is not expired, carry on\n    }\n  }\n\n\n  /*\n  <-- Functions -->\n  */\n\n  // Players can create a game by submitting their wager, using a password to encrypt their move\n  function createGame(string _move, string _password, uint _wager) public payable checkIfPaused() validateMove(_move) validatePassword(_password) validateWager(_wager) returnExtraPayment(_wager) {\n    games[gameIdCounter] = Game({ // Create a new game\n      gameId: gameIdCounter,\n      wager: _wager,\n      gameExpirationBlock: 0,\n      creator: msg.sender,\n      challenger: 0x0,\n      winner: 0x0,\n      creatorEncryptedMove: keccak256(_move, msg.sender, _password), // Encrypted using the user's password\n      challengerEncryptedMove: emptyStringHash,\n      creatorMove: '',\n      challengerMove: '',\n      status: Status.Open\n    });\n    emit GameUpdates(gameIdCounter, _wager, msg.sender, 0x0, Status.Open);\n    gameIdCounter = gameIdCounter.add(1); // Prep the counter for the next game\n  }\n\n  // Players can cancel their open game and get their wager deposits back\n  function cancelGame(uint _gameId) public checkIfPaused() {\n    Game storage game = games[_gameId];\n    require(\n      msg.sender == game.creator &&\n      game.status == Status.Open\n    );\n    game.status = Status.Cancelled;\n    game.creator.transfer(game.wager); /// @dev Called after state changes to prevent recursive call attacks\n    emit GameUpdates(game.gameId, game.wager, msg.sender, 0x0, Status.Cancelled);\n  }\n\n  // Opponent can join a open game by submitting his/her entry fee and their encrypted submission\n  function joinGame(string _move, string _password, uint _gameId) public payable checkIfPaused() validateMove(_move) validatePassword(_password) validateWager(games[_gameId].wager) returnExtraPayment(games[_gameId].wager) {\n    Game storage game = games[_gameId]; // Too bad Solidity doesn't let you define local variables in function arguments like JavaScript\n    require(\n      game.creator != msg.sender && // You can't challange yourself\n      game.status == Status.Open\n    );\n    game.status = Status.AwaitingReveals;\n    game.challenger = msg.sender;\n    game.gameExpirationBlock = block.number.add(gameBlockTimeLimit);\n    game.challengerEncryptedMove = keccak256(_move, msg.sender, _password); // Encrypted using the user's password\n    emit GameUpdates(game.gameId, game.wager, game.creator, msg.sender, Status.AwaitingReveals);\n  }\n\n  // Allow players to reveal their moves by providing their password and repeating their move\n  function revealMove(string _move, string _password, uint _gameId) public checkIfPaused() checkGameExpiration(_gameId) validateMove(_move) validatePassword(_password) {\n    Game storage game = games[_gameId];\n    require(\n      game.status == Status.AwaitingReveals ||\n      game.status == Status.AwaitingCreatorReveal ||\n      game.status == Status.AwaitingChallengerReveal\n    );\n\n    if (msg.sender == game.creator) { // If the creator reveals\n      require(game.creatorEncryptedMove == keccak256(_move, msg.sender, _password));\n      game.creatorMove = _move;\n      game.status = Status.AwaitingChallengerReveal;\n      emit GameUpdates(game.gameId, game.wager, game.creator, game.challenger, Status.AwaitingChallengerReveal);\n    } else if (msg.sender == game.challenger) { // If the challenger reveals\n      require(game.challengerEncryptedMove == keccak256(_move, msg.sender, _password));\n      game.challengerMove = _move;\n      game.status = Status.AwaitingCreatorReveal;\n      emit GameUpdates(game.gameId, game.wager, game.creator, game.challenger, Status.AwaitingCreatorReveal);\n    } else { // Return the poor stranger his/her remaining gas\n      revert();\n    }\n\n    if (keccak256(game.creatorMove) != emptyStringHash && keccak256(game.challengerMove) != emptyStringHash) { // If both players' moves are revealed, determine the winner\n      determineWinner(_gameId);\n    }\n  }\n\n  // If both player's answers are revealed, determine the winner or if it's a tie, and pay out accordingly\n  function determineWinner(uint _gameId) internal checkIfPaused() {\n    Game storage game = games[_gameId];\n    uint totalPrizePool = game.wager.mul(2);\n    require(\n      keccak256(game.creatorMove) != emptyStringHash &&\n      keccak256(game.challengerMove) != emptyStringHash\n    );\n\n    /// @dev i.e. moveWinsAgainst['Rock'] returns 'Paper'\n    if (keccak256(game.creatorMove) == keccak256(game.challengerMove)) { // If both players tie, refund both players\n      game.creator.transfer(game.wager);\n      game.challenger.transfer(game.wager);\n    } else if (keccak256(moveWinsAgainst[game.creatorMove]) == keccak256(game.challengerMove)) { // The challenger wins\n      game.winner = game.challenger;\n      game.winner.transfer(totalPrizePool);\n    } else if (keccak256(moveWinsAgainst[game.challengerMove]) == keccak256(game.creatorMove)) { // The creator wins\n      game.winner = game.creator;\n      game.winner.transfer(totalPrizePool);\n    } else { // Refund the poor stranger his/her remaining gas\n      revert();\n    }\n    game.status = Status.Finished;\n    emit GameUpdates(game.gameId, game.wager, game.creator, game.challenger, Status.Finished);\n  }\n\n}\n",
  "sourcePath": "/Users/joelfoster/GitHub/rock-paper-scissors/contracts/RockPaperScissors.sol",
  "compiler": {
    "name": "solc",
    "version": "0.4.24+commit.e67f0147.Emscripten.clang"
  },
  "schemaVersion": "2.0.0",
  "updatedAt": "2018-08-27T14:09:39.474Z"
}